:1000000012C02CC02BC02AC050C028C027C026C098
:1000100025C024C023C022C021C020C01FC01EC0D4
:100020001DC052C01BC011241FBECFE5D4E0DEBFEF
:10003000CDBF10E0A0E6B0E0EAEDF1E002C005902F
:100040000D92A436B107D9F710E0A4E6B0E001C0E4
:100050001D92A536B107E1F79DD0BDC0D1CF8FEF7E
:1000600087BB81BB81E084BBA89A18BA089585B587
:100070008C6685BD8091630083BD89B7806489BF2C
:10008000089510BC89E189B988E18AB908955F9B18
:10009000FECF8CB108955D9BFECF8CB9089584E1AD
:1000A00082B986B7856C86BF08951F920F920FB6EE
:1000B0000F9211248F938091630083BD8F910F90D5
:1000C0000FBE0F901F9018951F920F920FB60F92B0
:1000D00011248F939F93EF93FF9381B1803649F161
:1000E00081B1803809F441C081B1803A79F181B1A0
:1000F000883A09F449C081B1883B51F081B1803C14
:1001000099F081B1883C21F45D9BFECF8EEE8CB9D5
:1001100086B7806886BFFF91EF919F918F910F9076
:100120000FBE0F901F9018955D9BFECF8FEF8CB97F
:10013000EFCF86B7806486BF109264008FEF809304
:1001400060008093610080936200E2CFE0E6F0E01F
:1001500081915D9BFECF8CB980E0E336F807C1F753
:100160008091610080936300D3CF8091640093B14C
:10017000E82FF0E0E05AFF4F90838F5F8093640098
:1001800086B7806486BFC4CF88E883B986B78064A9
:1001900086BFBECF8FEF87BB81BB81E084BBA89AAF
:1001A00018BA10BC89E189B988E18AB985B58C662D
:1001B00085BD8091630083BD89B7806489BF84E178
:1001C00082B986B7856C86BF7894A8985D9BFECF70
:0A01D0008FEE8CB9FFCFF894FFCF3B
:0401DA00FFFFFF0A1A
:00000001FF
