:1000000012C024C023C022C041C020C01FC01EC0D7
:100010001DC01CC01BC01AC019C018C017C016C014
:1000200015C043C013C011241FBECFE5D4E0DEBF0E
:10003000CDBF10E0A0E6B0E0E8E3F1E002C005903B
:100040000D92A236B107D9F757D074C0D9CF8FEF30
:1000500087BB81BB81E084BBA89A089585B58C6677
:1000600085BD8091600083BD89B7806489BF089594
:1000700084E082B986B7856C86BFA89887EA91E646
:100080000197F1F700C00000A89A08951F920F92FF
:100090000FB60F9211248F938091600083BD8F91D2
:1000A0000F900FBE0F901F9018951F920F920FB6D2
:1000B0000F9211248F939F93A89887EA91E6019756
:1000C000F1F700C00000A89A81B1803859F0883A51
:1000D00011F480E883B99F918F910F900FBE0F901C
:1000E0001F90189583B1809360009F918F910F901E
:1000F0000FBE0F901F9018958FEF87BB81BB81E0DB
:1001000084BBA89A85B58C6685BD8091600083BD4F
:1001100089B7806489BF84E082B986B7856C86BF61
:10012000A89887EA91E60197F1F700C00000A89A25
:080130007894FFCFF894FFCF93
:020138000A00BB
:00000001FF
