:020000040800F2
:1000000000000220E1020008DD020008DB02000817
:10001000DB020008DB020008DB0200080000000031
:10002000000000000000000000000000DD020008E9
:10003000DD02000800000000DD020008DD0200080B
:10004000DB020008DB020008DB020008DB0200081C
:10005000DB020008DB020008DB020008DB0200080C
:10006000DB020008DB020008DB020008DB020008FC
:10007000DB020008DB020008DB020008DB020008EC
:10008000DB020008DB020008DB020008DB020008DC
:10009000DB020008DB020008DB020008DB020008CC
:1000A000DB020008DB020008DB020008DB020008BC
:1000B000DB020008DB020008DB020008DB020008AC
:1000C000DB020008DB020008DB020008DB0200089C
:1000D000DB020008DB020008DB020008DB0200088C
:1000E000DB020008DB020008DB020008DB0200087C
:1000F000DB020008DB020008DB020008DB0200086C
:10010000DB020008DB020008DB020008DB0200085B
:10011000DB020008DB020008DB020008DB0200084B
:10012000DB020008DB020008DB020008DB0200083B
:10013000DB020008DB020008DB020008DB0200082B
:10014000DB020008DB020008DB020008DB0200081B
:10015000DB020008DB020008DB020008DB0200080B
:10016000DB020008DB020008DB020008DB020008FB
:10017000DB020008DB020008DB020008DB020008EB
:10018000DB02000808B51C4B1C481A6842F0080244
:100190001A601A6842F001021A601A6942F40032C9
:1001A0001A61012100224FF4805300F035F8042336
:1001B00013480221002200F02FF8042210480721E2
:1001C00000F04DF80F4B8B221A605A6842F008027B
:1001D0005A605A6842F400525A6008484FF48051FD
:1001E00000F016F80848122100F064F8074B00BF31
:1001F000013BFCD1F1E700BF30380240000C024067
:10020000000002400844004000440040C0C62D00E9
:1002100043695940416170472DE9F0430668C5685C
:1002200000244FF0030843FA04F717F0010F0FD032
:10023000670008FA07FC6FEA0C0C01FA07F90CEAF0
:1002400006060CEA050502FA07F746EA09063D43E9
:100250000134102CE7D10660C560BDE8F083F0B52D
:10026000056A446A00230F2742FA03F6F60707D50A
:100270009E0007FA06FC25EA0C0501FA06F635434E
:100280000133082BF0D100230F2703F1080642FAAF
:1002900006F616F0010F07D09E0007FA06FC24EAC6
:1002A0000C0401FA06F634430133082BEDD1056244
:1002B0004462F0BD38B504460D4600F00AF8204609
:1002C0002946BDE8384000F000B8C1F3080141609C
:1002D000704703681B06FCD57047FEE770470000B7
:1002E0000023184C1849194802E01A595A5004338F
:1002F0005A188242F9D302E042F8041B01E0144B81
:1003000000219A42F8D3134C134D02E054F8043BF9
:100310009847AC42FAD3114C114D02E054F8043B1B
:100320009847AC42FAD30F4B0F4C1A680F4D42F46A
:1003300070021A60FFF726FF02E054F8043B98476A
:10034000AC42FAD370030008000000200000002037
:10035000000000207003000870030008700300080C
:100360007003000888ED00E07003000870030008C7
:04000005080002E10C
:00000001FF
