:020000040800F2
:1000000000000220810300087F0300087D03000830
:100010007D0300087D0300087D0300080000000048
:100020000000000000000000000000007F03000846
:100030007F030008000000007F0300087F03000822
:100040007D0300087D0300087D0300087D03000890
:100050007D0300087D0300087D0300087D03000880
:100060007D0300087D0300087D0300087D03000870
:100070007D0300087D0300087D0300087D03000860
:100080007D0300087D0300087D0300087D03000850
:100090007D0300087D0300087D0300087D03000840
:1000A0007D0300087D0300087D0300087D03000830
:1000B0007D0300087D0300087D0300087D03000820
:1000C0007D0300087D0300087D0300087D03000810
:1000D0007D0300087D0300087D0300087D03000800
:1000E0007D0300087D0300087D0300087D030008F0
:1000F0007D0300087D0300087D0300087D030008E0
:100100007D0300087D0300087D0300087D030008CF
:100110007D0300087D0300087D0300087D030008BF
:100120007D0300087D0300087D0300087D030008AF
:100130007D0300087D0300087D0300087D0300089F
:100140007D0300087D0300087D0300087D0300088F
:100150007D0300087D0300087D0300087D0300087F
:100160007D0300087D0300087D0300087D0300086F
:100170007D0300087D0300087D0300087D0300085F
:100180007D03000838B50B4D0446210E284600F0CB
:10019000DEF82846C4F3074100F0D9F82846C4F336
:1001A000072100F0D4F82846E1B2BDE8384000F05D
:1001B000CEB800BF0044004008B52248082100F036
:1001C000D9F82048012100F0D5F81F484FF400313C
:1001D00000F0D0F81D48012100224FF4805300F0B8
:1001E00045F804231A480221002200F03FF80422B7
:1001F0001748072100F05DF816484FF4E13100F090
:1002000083F81448082100F097F8124800F09AF893
:100210004FF480510D4800F025F80F4B1868FFF798
:10022000B1FFFF210B4800F092F80C480068FFF77F
:10023000A9FFFF21074800F08AF8094900BF0139EA
:10024000FCD1E5E73038024040380240000C024063
:100250000000024000440040084400400400002028
:10026000C0C62D0043695940416170472DE9F041F6
:100270000668C568002443FA04F717F0010F11D08F
:1002800067004FF0030C0CFA07F86FEA080C0CEA51
:10029000060601FA07F80CEA050502FA07F746EA2E
:1002A00008063D430134102CE5D10660C560BDE869
:1002B000F081F0B5056A446A002342FA03F6F607B6
:1002C00008D59E000F2707FA06F725EA070501FA69
:1002D00006F635430133082BEFD1002303F108065E
:1002E00042FA06F616F0010F08D09E000F2707FA13
:1002F00006F724EA070401FA06F634430133082B13
:10030000ECD105624462F0BD084A094B90421B687B
:1003100003D002F58062904201D1064B1B6801EBCD
:1003200043024900B2FBF1F38360704700100140C3
:100330000000002004000020C36823F00C021143D9
:10034000C1607047C36843F40051C160704738B55D
:1003500004460D4600F00AF820462946BDE838401C
:1003600000F000B8C905CA0D4260704703681B065B
:10037000FCD570470368194301607047FEE770477A
:100380000023184918485A18824204D217481C58AA
:100390005C500433F5E7164B9A4203D2002142F831
:1003A000041BF8E7134C144A944203D254F8043B5C
:1003B0009847F8E7114C12498C4203D254F8040BC9
:1003C0008047F8E70F4C206840F470032360FFF784
:1003D000F3FE0D4C0D4A944203D254F8041B884797
:1003E000F8E700BF0000002008000020100400080B
:1003F0000800002010040008100400081004000881
:100400001004000888ED00E0100400081004000843
:080410000024F4000024F400B4
:04000005080003816B
:00000001FF
