:020000040800F2
:1000000000000220C9030008C5030008C30300085C
:10001000C3030008C3030008C30300080000000076
:10002000000000000000000000000000C503000800
:10003000C503000800000000C5030008C503000850
:10004000C3030008C3030008C3030008C303000878
:10005000C3030008C3030008C3030008C303000868
:10006000C3030008C3030008C3030008C303000858
:10007000C3030008C3030008C3030008C303000848
:10008000C3030008C3030008C3030008C303000838
:10009000C3030008C3030008C3030008C303000828
:1000A000C3030008C3030008C3030008C303000818
:1000B000C3030008C3030008C3030008C303000808
:1000C000C3030008C3030008C3030008C3030008F8
:1000D000C3030008C3030008C3030008C3030008E8
:1000E000C3030008C3030008C3030008C3030008D8
:1000F000C3030008C3030008C3030008C3030008C8
:10010000C3030008C3030008C3030008C3030008B7
:10011000C3030008C3030008C3030008C3030008A7
:10012000C3030008C3030008C3030008C303000897
:10013000C3030008C3030008C3030008C303000887
:10014000C3030008C3030008C3030008C303000877
:10015000C3030008C3030008C3030008C303000867
:10016000C3030008C3030008C3030008C303000857
:10017000C3030008C3030008C3030008C303000847
:10018000C3030008002301E000BF01338342FBDB0F
:10019000704738B50A4D0446E1B2284600F0FEF833
:1001A0002846C4F3072100F0F9F82846C4F30741B4
:1001B00000F0F4F82846210EBDE8384000F0EEB813
:1001C0000010014010B52548254C012100F052F8DF
:1001D0002448102100F04EF823480121002210236A
:1001E00000F050F84FF400731F480221002200F085
:1001F00049F84FF400721C48072100F066F81B48CC
:100200004FF4E13100F08CF81848082100F0A0F814
:100210001648002100F0A5F814480C2100F0ADF8B4
:100220001248002100F0A3F81048002100F0ABF8BC
:100230000E4800F0AEF82068FFF7ABFF0B480D2129
:1002400000F0ACF809480A2100F0A8F8064810218F
:1002500000F014F80648FFF795FFECE7303802404D
:1002600008100140443802400000024000100140E4
:1002700040420F00036819430160704743695940C9
:10028000416170472DE9F0430668C56800244FF0CE
:10029000030843FA04F717F0010F0FD0670008FABC
:1002A00007FC6FEA0C0C01FA07F90CEA06060CEAE7
:1002B000050502FA07F746EA09063D430134102C0A
:1002C000E7D10660C560BDE8F083F0B5056A446A11
:1002D00000230F2742FA03F6F60707D59E0007FA18
:1002E00006FC25EA0C0501FA06F635430133082B16
:1002F000F0D100230F2703F1080642FA06F616F0A4
:10030000010F07D09E0007FA06FC24EA0C0401FA4C
:1003100006F634430133082BEDD105624462F0BD8B
:10032000084A094B90421B6803D002F58062904254
:1003300001D1064B1B6801EB43034900B3FBF1F30A
:10034000836070470010014000000020040000207E
:10035000C36808290CBF23F4805343F48053C3605F
:100360007047036923F44053194301617047C36820
:1003700023F4C0631943C1607047C36823F00C03C2
:100380001943C1607047436923F4407319434161C5
:100390007047C36843F40053C360704738B50446E0
:1003A0000D4600F00AF820462946BDE8384000F026
:1003B00000B8C1F308014160704703681B06FCD513
:1003C0007047FEE7704700000023184C1849194891
:1003D00002E01A595A5004335A188242F9D302E003
:1003E00042F8041B01E0144B00219A42F8D3134C4D
:1003F000134D02E054F8043B9847AC42FAD3114C39
:10040000114D02E054F8043B9847AC42FAD30F4B2D
:100410000F4C1A680F4D42F470021A60FFF7D2FEBB
:1004200002E054F8043B9847AC42FAD35804000861
:1004300000000020080000200800002058040008E8
:1004400058040008580400085804000888ED00E02B
:080450005804000858040008DC
:080458000024F4000024F4006C
:04000005080003C923
:00000001FF
